:02000000DE2CF4
:0E000600213083120313FD00FD0B07280800B4
:100014000F3083120313FC004730FD00FD0B102842
:0A002400FC0B10280000000008008B
:06002E00000000000800C4
:10003400FB14FB1F2428FF30F300F200F100F00052
:08004400FA0DF20CFF30080078
:10004C0083160313DC1B2D28831286132F2883128F
:10005C00861783165C1B35288312061337288312E8
:10006C0006178316DC1A3D28831286123F2883124A
:10007C00861683165C1A45288312061247288312AB
:10008C000616831637184D28831206154F2883122F
:10009C0006118615172086118316DC195828831231
:1000AC0086135A288312861783165C1960288312CC
:1000BC0006136228831206178316DC18682883122D
:1000CC0086126A288312861683165C18702883128F
:1000DC000612722883120616831637187828831294
:1000EC0006157A2883120611861517208611831699
:0C00FC00371C82280A20832803200800FB
:0E010800F201F101F001F801F30100300800EE
:08011600FA1FF213003008008B
:10011E007B15FB1F99280130F300F201F101F0016C
:08012E00FA0DF20CFF3008008D
:100136008316031337105A08DC002620831637145B
:020146000800AF
:0E014800831603132F088A002E088200080079
:100156000E3083120313FD00FD0BAF2800000800CC
:1001660083120313FA017308031D7A147708031D1B
:10017600FA147A080319FF28033A0319CA287A18C9
:10018600C728F61FFD28FB28F21FFB28FD2872084A
:100196008039FA00F21376088039F6137A060319C5
:1001A600D8287A080319FB28FD2877087302031953
:1001B600DF28031CF328F728760872020319E628BD
:1001C600031CF328F728750871020319ED28031C90
:1001D600F328F728740870020319FF280318F72874
:1001E600FA080319FD28FB28FA080319FB28FD283D
:1001F6000314080003100800031403150800080080
:1002060083120313FB017308031D770803195A2988
:1002160072087606FA007708F3077E30031C172962
:10022600F30203185D291A29F302031C60297208D8
:10023600F8007108FC007008FD00F817F6170310A7
:10024600F201F101F0011830A0007D1C3429740878
:10025600F00775080318750FF10776080318760F6F
:10026600F207F20CF10CF00CF80CFC0CFD0C031070
:10027600A00B2829F21B4429F80DF00DF10DF20D03
:10028600F3037B1B701C5629F81F5629F00A031925
:10029600F10A0319F20A031D5629F20CF10CF00CAF
:1002A600F30A03195D29FA1FF2130030622901309F
:1002B6008420622902301A20622904308F2000002F
:0202C60008002E
:1002C800A0017208031D79297108F2007008F10075
:1002D800F001A0157208031D79297108F200F101D7
:1002E800A01120167208031987292008F302031D9C
:1002F800031C8B290310F21B8F29F00DF10DF20D51
:10030800F30B7F298B290130FC00842092290230CD
:0E031800FC008F2092290430FC008B2008008E
:10032600831603135A08F2007208F100F20A5B08FA
:10033600F000DB0A700884000008F00071088400F1
:10034600700880007108840000080319AB299729FA
:060356005A08F000080047
:10035C0083120313F8010830FC00700DF80D7408BB
:10036C00F8020318BB29F8070310F00DFC0BB32996
:02037C00080077
:10037E0083160313D801D9014D08D4004E08D500B9
:10038E004F08D6005008D7005708FF3A031DD92949
:10039E005608FF3A031DD9295508FF3A031DD929DE
:1003AE005408FF3A031DE3295108DA003C30DB0004
:1003BE0093210330F000C02B0130D200D61FF2295A
:1003CE0080305606F0007008D600D20A510884001C
:1003DE002D308000D10A0030F0005706031D012A8F
:1003EE0070085606031D012A70085506031D012AC2
:1003FE005408003A031D0A2A5108DA005230DB0075
:10040E009321F001C02B5708FF3A031D182A5608F6
:10041E00003A031D182A5508003A031D182A5408DD
:10042E00003A031D222A5108DA004E30DB009321D8
:10043E005208F000C02B0030F4000030F500003000
:10044E00F6007F30F7005408F0005508F10056080A
:10045E00F2005708F300B320013003180030F0000B
:10046E0070080319572A83165408F0005508F10036
:10047E005608F2005708F3000030F4000030F50083
:10048E002030F6008230F700032170088316D40066
:10049E007108D5007208D6007308D700D903222A36
:1004AE0083160030F4000030F5002030F600823064
:1004BE00F7005408F0005508F1005608F2005708EE
:1004CE00F300B3200130031C0030F0007008031954
:1004DE008D2A83165408F0005508F1005608F200D4
:1004EE005708F300CD30F400CC30F5004C30F60058
:1004FE007B30F700032170088316D4007108D500F5
:10050E007208D6007308D700D90A572A8316FF300F
:10051E005405F800FF305505F9007F305605FA00F6
:10052E0000305705FB007808F4007908F5007A08CA
:10053E00F6007B08F700F40DF50DF60DF70D7410AF
:10054E0000305405F00000305505F100003056051E
:10055E00F200FF305705F3007008D4007108D50083
:10056E007208D6007308D70074085404F00075089A
:10057E005504F10076085604F20077085704F3008C
:10058E007008D4007108D5007208D6007308D70021
:10059E007F305702F0007008D3000130D70070088A
:1005AE00F4005408F0005508F1005608F200570800
:1005BE00F30074080319EA2AF00DF10DF20DF30D94
:1005CE007010FF3EE12A7008D4007108D500720841
:1005DE00D6007308D7005708303EF000510884004B
:1005EE0070088000D10A80305906F0008030013A40
:1005FE007002031C0B2B8030063AF0008030590637
:10060E007002031C0B2B122B510884002E3080001D
:10061E00D10A0130D8000630D3005308003A03192E
:10062E00702BD7015408F0005508F1005608F2005F
:10063E005708F300F00DF10DF20DF30D7010F00DE3
:10064E00F10DF20DF30D70105408F0075508031854
:10065E00550FF10756080318560FF20757080318DF
:10066E00570FF3077008D4007108D5007208D60032
:10067E007308D7005408F0005508F1005608F20030
:10068E005708F300F00DF10DF20DF30D7010700818
:10069E00D4007108D5007208D6007308D700570829
:1006AE00303EF0005108840070088000D10A5808CE
:1006BE00003A031D6E2BD9035908003A031D6E2B09
:1006CE00510884002E308000D10A0130D800D303A7
:1006DE00142BFF30510784000008303A031D792B8C
:1006EE00D103702BFF305107840000082E3A031DF2
:1006FE00812BD1035908003A0319BC2B51088400F1
:10070E0065308000D10A80305906F0008030003A02
:10071E00700203189A2B510884002D308000D10AE4
:10072E005908003CD9005908D3005908093C031850
:10073E00AD2B0A30F4005308F000AE213030F00734
:10074E0083165108840070088000D10A0A30F40024
:10075E005308F000AE217808F0003030F007831611
:10076E005108840070088000D10A5108840080016D
:04077E00F00108007E
:10078200831203139F01C0309F0483161F179F1704
:100792004D08F000F00D7010F00D7010F00D70109B
:1007A200700883129F041F14AB201F151F1DDB2B23
:1007B2000000D72B1F101E08F100F00183161E083F
:0807C200F0040030F10408000E
:1007CA00831203137008F8007108F000F101F201B6
:1007DA00F301FB01FC019630F300FA01F01FFB2B39
:1007EA00F809F009F80A0319F00AFA177008F10073
:0C07FA007808F000F801F201642108000A
:10080600152C803083160313CD00282CC030CD0064
:10081600282C9430CD00282CD430CD00282C8030C4
:10082600CD00282C831603134D08013A0319042C16
:100836004D08023A0319092C4D08033A03190C2CEA
:100846004D08043A03190F2C122C4E03F0004D08E4
:10085600F0077008CD007008DC00262083163710DC
:10086600D00150084F07840000080319422C500895
:100876004F0784000008DA009B20D00A342C371476
:02088600080068
:10088800FF3083160313B400FF30B500FF30B60005
:10089800FF3083129F01C0309F0483161F179F17D4
:0608A80083121F1408007A
:1008AE00831603138611061106128612061386137B
:1008BE0083128611061186130613861206120A205B
:1008CE000A200A20861606168615172086110A207B
:1008DE008615172086110A208615172086110A20E4
:1008EE0006128615172086110A20861517208611E6
:1008FE00861286178615172086110A20861306166D
:10090E0086151720861106128615172086110A20C5
:10091E0086151720861106168615172086110A20B1
:10092E0006128615172086118617061786160616C6
:0E093E008615172086110A208316371408002C
:10094C00A4208A110A128000840AAE0A0319AF0A85
:08095C00F003031DA62C0800A6
:1009640083160313CE01CF014D08F2004D08F300A6
:10097400720884000008203A031DC52C4E084F0459
:10098400031DC52CD22C0130CE000030CF007208DC
:1009940084000008F0007308840070088000F30AE3
:1009A4007208F100F20A710884000008003A031D7D
:0809B400BA2C4D08F000080008
:1009BC005A265724442401308316DC0026200C30A0
:1009CC008316DC00262001308316CD000430CE00C7
:1009DC003230CF0003240230CD000130CE00213064
:1009EC00CF0003241530FB004B30FC00BE30FD0063
:1009FC00FD0BFE2CFC0BFE2CFB0BFE2C0000013027
:100A0C00DC00262002308316CD00C123700883122F
:100A1C00E8007108E90003308316CD00C12370088B
:100A2C008312EE007108EF003430FC00F130FD0051
:100A3C00FD0B1E2DFC0B1E2D000000006808F000A5
:100A4C006908F100E5230A30F4002830F500203065
:100A5C00F6007730F70003210030F4000030F50089
:100A6C002030F6008130F700032170088316AA00AD
:100A7C007108AB007208AC007308AD0083126E08ED
:100A8C00F0006F08F100E5230A30F4002830F5007F
:100A9C002030F6007730F70003210030F4000030EE
:100AAC00F5000030F6008030F70003217008EA00F2
:100ABC007108EB007208EC007308ED0083162A082D
:100ACC00F0002B08F1002C08F2002D08F300003088
:100ADC00F4000030F5004830F6008530F7000321B3
:100AEC0070088316B0007108B1007208B200730868
:100AFC00B3002A08CD002B08CE002C08CF002D08FF
:100B0C00D000C630D100BF2183126A088316CD00F5
:100B1C0083126B088316CE0083126C088316CF00E9
:100B2C0083126D088316D000BF30D100BF2130086E
:100B3C00CD003108CE003208CF003308D000B830D9
:100B4C00D100BF210130CD000130CE00A030CF004C
:100B5C000324C630CD00B2247008CF000130CD0084
:100B6C000A30CE0003240230CD000130CE005D30BF
:100B7C00CF000324BF30CD00B2247008CF00023068
:100B8C00CD000B30CE0003241F30FB007130FC0075
:100B9C001E30FD00FD0BD02DFC0BD02DFB0BD02DF2
:100BAC0000000130DC00262001308316CD0001301E
:100BBC00CE005430CF000324B830CD00B2247008DE
:100BCC00CF000130CD000A30CE0003240230CD001E
:100BDC000130CE004030CF0003242930FB0096308A
:100BEC00FC007F30FD00FD0BF92DFC0BF92DFB0BF0
:0C0BFC00F92D0130DC002620082D032E0E
:100CB40021308400473083120313F0000930831677
:100CC400AE000630AF00A624A03084000A3003131F
:100CD400F00050308316AE000630AF00A6240800A2
:100C120050346F3477346534723420346734653439
:100C22006E34653472346134743469346F346E34C2
:020C320000348C
:100C340046346F346F34743420345334743465342C
:040C440070340034D4
:080C48004E3461344E340034D7
:100C5000283441347034703472346F3478346934E9
:0C0C60006D346134743465342934003480
:080C6C0049344E3446340034D3
:040C740030340034E4
:100C780053347434653470344F346E3449347434B6
:020C8800003436
:100C8A004334683461347234673469346E34673497
:060C9A0056343A34003428
:100CA0004234613474347434653472347934563473
:040CB0003A3400349E
:02400E004A2F37
:00000001FF
